{
  "contractName": "Bank",
  "abi": [
    {
      "inputs": [
        {
          "internalType": "address payable",
          "name": "oracleContract",
          "type": "address"
        }
      ],
      "payable": false,
      "stateMutability": "nonpayable",
      "type": "constructor"
    },
    {
      "anonymous": false,
      "inputs": [
        {
          "indexed": false,
          "internalType": "address",
          "name": "borrower",
          "type": "address"
        },
        {
          "indexed": false,
          "internalType": "uint256",
          "name": "debtAmount",
          "type": "uint256"
        }
      ],
      "name": "Liquidation",
      "type": "event"
    },
    {
      "anonymous": false,
      "inputs": [
        {
          "indexed": false,
          "internalType": "address",
          "name": "_descriptorSet",
          "type": "address"
        }
      ],
      "name": "NewDescriptorSet",
      "type": "event"
    },
    {
      "anonymous": false,
      "inputs": [
        {
          "indexed": false,
          "internalType": "address",
          "name": "token",
          "type": "address"
        },
        {
          "indexed": false,
          "internalType": "uint256",
          "name": "price",
          "type": "uint256"
        }
      ],
      "name": "PriceUpdate",
      "type": "event"
    },
    {
      "anonymous": false,
      "inputs": [
        {
          "indexed": false,
          "internalType": "uint256",
          "name": "amount",
          "type": "uint256"
        }
      ],
      "name": "ReserveDeposit",
      "type": "event"
    },
    {
      "anonymous": false,
      "inputs": [
        {
          "indexed": false,
          "internalType": "address",
          "name": "token",
          "type": "address"
        },
        {
          "indexed": false,
          "internalType": "uint256",
          "name": "amount",
          "type": "uint256"
        }
      ],
      "name": "ReserveWithdraw",
      "type": "event"
    },
    {
      "anonymous": false,
      "inputs": [
        {
          "indexed": false,
          "internalType": "address",
          "name": "borrower",
          "type": "address"
        },
        {
          "indexed": false,
          "internalType": "uint256",
          "name": "amount",
          "type": "uint256"
        }
      ],
      "name": "VaultBorrow",
      "type": "event"
    },
    {
      "anonymous": false,
      "inputs": [
        {
          "indexed": false,
          "internalType": "address",
          "name": "owner",
          "type": "address"
        },
        {
          "indexed": false,
          "internalType": "uint256",
          "name": "amount",
          "type": "uint256"
        }
      ],
      "name": "VaultDeposit",
      "type": "event"
    },
    {
      "anonymous": false,
      "inputs": [
        {
          "indexed": false,
          "internalType": "address",
          "name": "borrower",
          "type": "address"
        },
        {
          "indexed": false,
          "internalType": "uint256",
          "name": "amount",
          "type": "uint256"
        }
      ],
      "name": "VaultRepay",
      "type": "event"
    },
    {
      "anonymous": false,
      "inputs": [
        {
          "indexed": false,
          "internalType": "address",
          "name": "borrower",
          "type": "address"
        },
        {
          "indexed": false,
          "internalType": "uint256",
          "name": "amount",
          "type": "uint256"
        }
      ],
      "name": "VaultWithdraw",
      "type": "event"
    },
    {
      "constant": true,
      "inputs": [],
      "name": "getCollateralTokenAddress",
      "outputs": [
        {
          "internalType": "address",
          "name": "",
          "type": "address"
        }
      ],
      "payable": false,
      "stateMutability": "view",
      "type": "function"
    },
    {
      "constant": true,
      "inputs": [],
      "name": "getCollateralTokenLastUpdatedAt",
      "outputs": [
        {
          "internalType": "uint256",
          "name": "",
          "type": "uint256"
        }
      ],
      "payable": false,
      "stateMutability": "view",
      "type": "function"
    },
    {
      "constant": true,
      "inputs": [],
      "name": "getCollateralTokenPrice",
      "outputs": [
        {
          "internalType": "uint256",
          "name": "",
          "type": "uint256"
        }
      ],
      "payable": false,
      "stateMutability": "view",
      "type": "function"
    },
    {
      "constant": true,
      "inputs": [],
      "name": "getCollateralTokenPriceGranularity",
      "outputs": [
        {
          "internalType": "uint256",
          "name": "",
          "type": "uint256"
        }
      ],
      "payable": false,
      "stateMutability": "view",
      "type": "function"
    },
    {
      "constant": true,
      "inputs": [],
      "name": "getCollateralizationRatio",
      "outputs": [
        {
          "internalType": "uint256",
          "name": "",
          "type": "uint256"
        }
      ],
      "payable": false,
      "stateMutability": "view",
      "type": "function"
    },
    {
      "constant": true,
      "inputs": [
        {
          "internalType": "uint256",
          "name": "_requestId",
          "type": "uint256"
        }
      ],
      "name": "getCurrentValue",
      "outputs": [
        {
          "internalType": "bool",
          "name": "ifRetrieve",
          "type": "bool"
        },
        {
          "internalType": "uint256",
          "name": "value",
          "type": "uint256"
        },
        {
          "internalType": "uint256",
          "name": "_timestampRetrieved",
          "type": "uint256"
        }
      ],
      "payable": false,
      "stateMutability": "view",
      "type": "function"
    },
    {
      "constant": true,
      "inputs": [
        {
          "internalType": "uint256",
          "name": "_requestId",
          "type": "uint256"
        },
        {
          "internalType": "uint256",
          "name": "_timestamp",
          "type": "uint256"
        },
        {
          "internalType": "uint256",
          "name": "_limit",
          "type": "uint256"
        },
        {
          "internalType": "uint256",
          "name": "_offset",
          "type": "uint256"
        }
      ],
      "name": "getDataBefore",
      "outputs": [
        {
          "internalType": "bool",
          "name": "_ifRetrieve",
          "type": "bool"
        },
        {
          "internalType": "uint256",
          "name": "_value",
          "type": "uint256"
        },
        {
          "internalType": "uint256",
          "name": "_timestampRetrieved",
          "type": "uint256"
        }
      ],
      "payable": false,
      "stateMutability": "view",
      "type": "function"
    },
    {
      "constant": true,
      "inputs": [],
      "name": "getDebtTokenAddress",
      "outputs": [
        {
          "internalType": "address",
          "name": "",
          "type": "address"
        }
      ],
      "payable": false,
      "stateMutability": "view",
      "type": "function"
    },
    {
      "constant": true,
      "inputs": [],
      "name": "getDebtTokenLastUpdatedAt",
      "outputs": [
        {
          "internalType": "uint256",
          "name": "",
          "type": "uint256"
        }
      ],
      "payable": false,
      "stateMutability": "view",
      "type": "function"
    },
    {
      "constant": true,
      "inputs": [],
      "name": "getDebtTokenPrice",
      "outputs": [
        {
          "internalType": "uint256",
          "name": "",
          "type": "uint256"
        }
      ],
      "payable": false,
      "stateMutability": "view",
      "type": "function"
    },
    {
      "constant": true,
      "inputs": [],
      "name": "getDebtTokenPriceGranularity",
      "outputs": [
        {
          "internalType": "uint256",
          "name": "",
          "type": "uint256"
        }
      ],
      "payable": false,
      "stateMutability": "view",
      "type": "function"
    },
    {
      "constant": true,
      "inputs": [],
      "name": "getInterestRate",
      "outputs": [
        {
          "internalType": "uint256",
          "name": "",
          "type": "uint256"
        }
      ],
      "payable": false,
      "stateMutability": "view",
      "type": "function"
    },
    {
      "constant": true,
      "inputs": [],
      "name": "getLiquidationPenalty",
      "outputs": [
        {
          "internalType": "uint256",
          "name": "",
          "type": "uint256"
        }
      ],
      "payable": false,
      "stateMutability": "view",
      "type": "function"
    },
    {
      "constant": true,
      "inputs": [],
      "name": "getName",
      "outputs": [
        {
          "internalType": "string",
          "name": "",
          "type": "string"
        }
      ],
      "payable": false,
      "stateMutability": "view",
      "type": "function"
    },
    {
      "constant": true,
      "inputs": [],
      "name": "getOriginationFee",
      "outputs": [
        {
          "internalType": "uint256",
          "name": "",
          "type": "uint256"
        }
      ],
      "payable": false,
      "stateMutability": "view",
      "type": "function"
    },
    {
      "constant": true,
      "inputs": [],
      "name": "getReserveBalance",
      "outputs": [
        {
          "internalType": "uint256",
          "name": "",
          "type": "uint256"
        }
      ],
      "payable": false,
      "stateMutability": "view",
      "type": "function"
    },
    {
      "constant": true,
      "inputs": [],
      "name": "getReserveCollateralBalance",
      "outputs": [
        {
          "internalType": "uint256",
          "name": "",
          "type": "uint256"
        }
      ],
      "payable": false,
      "stateMutability": "view",
      "type": "function"
    },
    {
      "constant": true,
      "inputs": [],
      "name": "getVaultCollateralAmount",
      "outputs": [
        {
          "internalType": "uint256",
          "name": "",
          "type": "uint256"
        }
      ],
      "payable": false,
      "stateMutability": "view",
      "type": "function"
    },
    {
      "constant": true,
      "inputs": [
        {
          "internalType": "address",
          "name": "vaultOwner",
          "type": "address"
        }
      ],
      "name": "getVaultCollateralizationRatio",
      "outputs": [
        {
          "internalType": "uint256",
          "name": "",
          "type": "uint256"
        }
      ],
      "payable": false,
      "stateMutability": "view",
      "type": "function"
    },
    {
      "constant": true,
      "inputs": [],
      "name": "getVaultDebtAmount",
      "outputs": [
        {
          "internalType": "uint256",
          "name": "",
          "type": "uint256"
        }
      ],
      "payable": false,
      "stateMutability": "view",
      "type": "function"
    },
    {
      "constant": true,
      "inputs": [],
      "name": "getVaultRepayAmount",
      "outputs": [
        {
          "internalType": "uint256",
          "name": "principal",
          "type": "uint256"
        }
      ],
      "payable": false,
      "stateMutability": "view",
      "type": "function"
    },
    {
      "constant": true,
      "inputs": [],
      "name": "oracleIDDescriptionsAddress",
      "outputs": [
        {
          "internalType": "address",
          "name": "",
          "type": "address"
        }
      ],
      "payable": false,
      "stateMutability": "view",
      "type": "function"
    },
    {
      "constant": false,
      "inputs": [
        {
          "internalType": "address",
          "name": "_oracleDescriptors",
          "type": "address"
        }
      ],
      "name": "setOracleIDDescriptors",
      "outputs": [],
      "payable": false,
      "stateMutability": "nonpayable",
      "type": "function"
    },
    {
      "constant": true,
      "inputs": [],
      "name": "tellorStorageAddress",
      "outputs": [
        {
          "internalType": "address payable",
          "name": "",
          "type": "address"
        }
      ],
      "payable": false,
      "stateMutability": "view",
      "type": "function"
    },
    {
      "constant": true,
      "inputs": [
        {
          "internalType": "bytes32",
          "name": "_bytesId",
          "type": "bytes32"
        }
      ],
      "name": "valueFor",
      "outputs": [
        {
          "internalType": "int256",
          "name": "value",
          "type": "int256"
        },
        {
          "internalType": "uint256",
          "name": "timestamp",
          "type": "uint256"
        },
        {
          "internalType": "uint256",
          "name": "status",
          "type": "uint256"
        }
      ],
      "payable": false,
      "stateMutability": "view",
      "type": "function"
    },
    {
      "constant": true,
      "inputs": [
        {
          "internalType": "address",
          "name": "",
          "type": "address"
        }
      ],
      "name": "vaults",
      "outputs": [
        {
          "internalType": "uint256",
          "name": "collateralAmount",
          "type": "uint256"
        },
        {
          "internalType": "uint256",
          "name": "debtAmount",
          "type": "uint256"
        },
        {
          "internalType": "uint256",
          "name": "createdAt",
          "type": "uint256"
        }
      ],
      "payable": false,
      "stateMutability": "view",
      "type": "function"
    },
    {
      "constant": true,
      "inputs": [],
      "name": "owner",
      "outputs": [
        {
          "internalType": "address",
          "name": "",
          "type": "address"
        }
      ],
      "payable": false,
      "stateMutability": "view",
      "type": "function"
    },
    {
      "constant": false,
      "inputs": [
        {
          "internalType": "address",
          "name": "creator",
          "type": "address"
        },
        {
          "internalType": "string",
          "name": "bankName",
          "type": "string"
        },
        {
          "internalType": "uint256",
          "name": "interestRate",
          "type": "uint256"
        },
        {
          "internalType": "uint256",
          "name": "originationFee",
          "type": "uint256"
        },
        {
          "internalType": "uint256",
          "name": "collateralizationRatio",
          "type": "uint256"
        },
        {
          "internalType": "uint256",
          "name": "liquidationPenalty",
          "type": "uint256"
        },
        {
          "internalType": "uint256",
          "name": "period",
          "type": "uint256"
        },
        {
          "internalType": "address payable",
          "name": "oracleContract",
          "type": "address"
        }
      ],
      "name": "init",
      "outputs": [],
      "payable": false,
      "stateMutability": "nonpayable",
      "type": "function"
    },
    {
      "constant": false,
      "inputs": [
        {
          "internalType": "address",
          "name": "collateralToken",
          "type": "address"
        },
        {
          "internalType": "uint256",
          "name": "collateralTokenTellorRequestId",
          "type": "uint256"
        },
        {
          "internalType": "uint256",
          "name": "collateralTokenPriceGranularity",
          "type": "uint256"
        },
        {
          "internalType": "uint256",
          "name": "collateralTokenPrice",
          "type": "uint256"
        }
      ],
      "name": "setCollateral",
      "outputs": [],
      "payable": false,
      "stateMutability": "nonpayable",
      "type": "function"
    },
    {
      "constant": false,
      "inputs": [
        {
          "internalType": "address",
          "name": "debtToken",
          "type": "address"
        },
        {
          "internalType": "uint256",
          "name": "debtTokenTellorRequestId",
          "type": "uint256"
        },
        {
          "internalType": "uint256",
          "name": "debtTokenPriceGranularity",
          "type": "uint256"
        },
        {
          "internalType": "uint256",
          "name": "debtTokenPrice",
          "type": "uint256"
        }
      ],
      "name": "setDebt",
      "outputs": [],
      "payable": false,
      "stateMutability": "nonpayable",
      "type": "function"
    },
    {
      "constant": false,
      "inputs": [
        {
          "internalType": "uint256",
          "name": "amount",
          "type": "uint256"
        }
      ],
      "name": "reserveDeposit",
      "outputs": [],
      "payable": false,
      "stateMutability": "nonpayable",
      "type": "function"
    },
    {
      "constant": false,
      "inputs": [
        {
          "internalType": "uint256",
          "name": "amount",
          "type": "uint256"
        }
      ],
      "name": "reserveWithdraw",
      "outputs": [],
      "payable": false,
      "stateMutability": "nonpayable",
      "type": "function"
    },
    {
      "constant": false,
      "inputs": [
        {
          "internalType": "uint256",
          "name": "amount",
          "type": "uint256"
        }
      ],
      "name": "reserveWithdrawCollateral",
      "outputs": [],
      "payable": false,
      "stateMutability": "nonpayable",
      "type": "function"
    },
    {
      "constant": false,
      "inputs": [],
      "name": "updateCollateralPrice",
      "outputs": [],
      "payable": false,
      "stateMutability": "nonpayable",
      "type": "function"
    },
    {
      "constant": false,
      "inputs": [],
      "name": "updateDebtPrice",
      "outputs": [],
      "payable": false,
      "stateMutability": "nonpayable",
      "type": "function"
    },
    {
      "constant": false,
      "inputs": [
        {
          "internalType": "address",
          "name": "vaultOwner",
          "type": "address"
        }
      ],
      "name": "liquidate",
      "outputs": [],
      "payable": false,
      "stateMutability": "nonpayable",
      "type": "function"
    },
    {
      "constant": false,
      "inputs": [
        {
          "internalType": "uint256",
          "name": "amount",
          "type": "uint256"
        }
      ],
      "name": "vaultDeposit",
      "outputs": [],
      "payable": false,
      "stateMutability": "nonpayable",
      "type": "function"
    },
    {
      "constant": false,
      "inputs": [
        {
          "internalType": "uint256",
          "name": "amount",
          "type": "uint256"
        }
      ],
      "name": "vaultBorrow",
      "outputs": [],
      "payable": false,
      "stateMutability": "nonpayable",
      "type": "function"
    },
    {
      "constant": false,
      "inputs": [
        {
          "internalType": "uint256",
          "name": "amount",
          "type": "uint256"
        }
      ],
      "name": "vaultRepay",
      "outputs": [],
      "payable": false,
      "stateMutability": "nonpayable",
      "type": "function"
    },
    {
      "constant": false,
      "inputs": [
        {
          "internalType": "uint256",
          "name": "amount",
          "type": "uint256"
        }
      ],
      "name": "vaultWithdraw",
      "outputs": [],
      "payable": false,
      "stateMutability": "nonpayable",
      "type": "function"
    }
  ],
  "bytecode": "0x608060405234801561001057600080fd5b50604051613adf380380613adf8339818101604052602081101561003357600080fd5b81019080805190602001909291905050508080601660006101000a81548173ffffffffffffffffffffffffffffffffffffffff021916908373ffffffffffffffffffffffffffffffffffffffff160217905550601660009054906101000a900473ffffffffffffffffffffffffffffffffffffffff16601860006101000a81548173ffffffffffffffffffffffffffffffffffffffff021916908373ffffffffffffffffffffffffffffffffffffffff1602179055505080600e60060160006101000a81548173ffffffffffffffffffffffffffffffffffffffff021916908373ffffffffffffffffffffffffffffffffffffffff160217905550506139a18061013e6000396000f3fe608060405234801561001057600080fd5b50600436106102475760003560e01c80637649b9381161013b578063c969ac06116100b8578063f327e3241161007c578063f327e32414610acf578063f78eea8314610aed578063f91614eb14610b3d578063fb839dda14610b5b578063fc2e39a614610b8957610247565b8063c969ac06146109a9578063cb765c1d146109c7578063d267974c146109e5578063ddb2d6c514610a2f578063ec5e5e7d14610aa157610247565b8063a8020973116100ff578063a80209731461087d578063a860988c146108c7578063b71d7a6e146108e5578063bb97f31d14610903578063c14d04541461094757610247565b80637649b9381461077757806385b4e543146107a557806386ef5738146107af5780638da5cb5b146107cd578063a622ee7c1461081757610247565b8063435726c4116101c957806353388f441161018d57806353388f44146105955780635729b394146105b35780635b5d208b146105e1578063685a58081461070f5780636d483fe61461072d57610247565b8063435726c4146104c757806345fd80e4146104f55780634fd88951146104ff5780635257b5661461052d578063526366b41461054b57610247565b80631e522b29116102105780631e522b29146103915780632f865568146103af578063317c9e42146103f357806338507ff5146104115780633fcad9641461047357610247565b806291a4461461024c57806308dcd7c61461027a578063151439501461029857806317d7de7c146102b65780631b9084b414610339575b600080fd5b6102786004803603602081101561026257600080fd5b8101908080359060200190929190505050610ba7565b005b610282610ddb565b6040518082815260200191505060405180910390f35b6102a0610de7565b6040518082815260200191505060405180910390f35b6102be610df4565b6040518080602001828103825283818151815260200191508051906020019080838360005b838110156102fe5780820151818401526020810190506102e3565b50505050905090810190601f16801561032b5780820380516001836020036101000a031916815260200191505b509250505060405180910390f35b61037b6004803603602081101561034f57600080fd5b81019080803573ffffffffffffffffffffffffffffffffffffffff169060200190929190505050610e96565b6040518082815260200191505060405180910390f35b610399610fb4565b6040518082815260200191505060405180910390f35b6103f1600480360360208110156103c557600080fd5b81019080803573ffffffffffffffffffffffffffffffffffffffff169060200190929190505050610fc1565b005b6103fb611364565b6040518082815260200191505060405180910390f35b6104716004803603608081101561042757600080fd5b81019080803573ffffffffffffffffffffffffffffffffffffffff169060200190929190803590602001909291908035906020019092919080359060200190929190505050611371565b005b61049f6004803603602081101561048957600080fd5b81019080803590602001909291905050506114fa565b6040518084151515158152602001838152602001828152602001935050505060405180910390f35b6104f3600480360360208110156104dd57600080fd5b810190808035906020019092919050505061151a565b005b6104fd6117ee565b005b61052b6004803603602081101561051557600080fd5b81019080803590602001909291905050506118b4565b005b610535611d7a565b6040518082815260200191505060405180910390f35b610553611d87565b604051808273ffffffffffffffffffffffffffffffffffffffff1673ffffffffffffffffffffffffffffffffffffffff16815260200191505060405180910390f35b61059d611dad565b6040518082815260200191505060405180910390f35b6105df600480360360208110156105c957600080fd5b8101908080359060200190929190505050611dba565b005b61070d60048036036101008110156105f857600080fd5b81019080803573ffffffffffffffffffffffffffffffffffffffff1690602001909291908035906020019064010000000081111561063557600080fd5b82018360208201111561064757600080fd5b8035906020019184600183028401116401000000008311171561066957600080fd5b91908080601f016020809104026020016040519081016040528093929190818152602001838380828437600081840152601f19601f8201169050808301925050505050505091929192908035906020019092919080359060200190929190803590602001909291908035906020019092919080359060200190929190803573ffffffffffffffffffffffffffffffffffffffff169060200190929190505050611f9c565b005b61071761212a565b6040518082815260200191505060405180910390f35b610735612174565b604051808273ffffffffffffffffffffffffffffffffffffffff1673ffffffffffffffffffffffffffffffffffffffff16815260200191505060405180910390f35b6107a36004803603602081101561078d57600080fd5b81019080803590602001909291905050506121a1565b005b6107ad612559565b005b6107b761261f565b6040518082815260200191505060405180910390f35b6107d561262c565b604051808273ffffffffffffffffffffffffffffffffffffffff1673ffffffffffffffffffffffffffffffffffffffff16815260200191505060405180910390f35b6108596004803603602081101561082d57600080fd5b81019080803573ffffffffffffffffffffffffffffffffffffffff169060200190929190505050612656565b60405180848152602001838152602001828152602001935050505060405180910390f35b610885612680565b604051808273ffffffffffffffffffffffffffffffffffffffff1673ffffffffffffffffffffffffffffffffffffffff16815260200191505060405180910390f35b6108cf6126a6565b6040518082815260200191505060405180910390f35b6108ed6126f0565b6040518082815260200191505060405180910390f35b6109456004803603602081101561091957600080fd5b81019080803573ffffffffffffffffffffffffffffffffffffffff1690602001909291905050506127da565b005b6109a76004803603608081101561095d57600080fd5b81019080803573ffffffffffffffffffffffffffffffffffffffff169060200190929190803590602001909291908035906020019092919080359060200190929190505050612986565b005b6109b1612b0e565b6040518082815260200191505060405180910390f35b6109cf612b1b565b6040518082815260200191505060405180910390f35b6109ed612b28565b604051808273ffffffffffffffffffffffffffffffffffffffff1673ffffffffffffffffffffffffffffffffffffffff16815260200191505060405180910390f35b610a7960048036036080811015610a4557600080fd5b8101908080359060200190929190803590602001909291908035906020019092919080359060200190929190505050612b55565b6040518084151515158152602001838152602001828152602001935050505060405180910390f35b610acd60048036036020811015610ab757600080fd5b8101908080359060200190929190505050612eb2565b005b610ad7613169565b6040518082815260200191505060405180910390f35b610b1960048036036020811015610b0357600080fd5b8101908080359060200190929190505050613176565b60405180848152602001838152602001828152602001935050505060405180910390f35b610b4561355f565b6040518082815260200191505060405180910390f35b610b8760048036036020811015610b7157600080fd5b810190808035906020019092919050505061356c565b005b610b9161386f565b6040518082815260200191505060405180910390f35b3373ffffffffffffffffffffffffffffffffffffffff16601a60009054906101000a900473ffffffffffffffffffffffffffffffffffffffff1673ffffffffffffffffffffffffffffffffffffffff1614610c6a576040517f08c379a000000000000000000000000000000000000000000000000000000000815260040180806020018281038252600c8152602001807f4953204e4f54204f574e4552000000000000000000000000000000000000000081525060200191505060405180910390fd5b600260000160009054906101000a900473ffffffffffffffffffffffffffffffffffffffff1673ffffffffffffffffffffffffffffffffffffffff166323b872dd3330846040518463ffffffff1660e01b8152600401808473ffffffffffffffffffffffffffffffffffffffff1673ffffffffffffffffffffffffffffffffffffffff1681526020018373ffffffffffffffffffffffffffffffffffffffff1673ffffffffffffffffffffffffffffffffffffffff1681526020018281526020019350505050602060405180830381600087803b158015610d4a57600080fd5b505af1158015610d5e573d6000803e3d6000fd5b505050506040513d6020811015610d7457600080fd5b8101908080519060200190929190505050610d8e57600080fd5b80600e600101600082825401925050819055507f71eb3e5df75ef293b81b4c7b38db51f7a6cec007d12529cb74d4eafb7fa53222816040518082815260200191505060405180910390a150565b60006002800154905090565b6000600860010154905090565b606060008054600181600116156101000203166002900480601f016020809104026020016040519081016040528092919081815260200182805460018160011615610100020316600290048015610e8c5780601f10610e6157610100808354040283529160200191610e8c565b820191906000526020600020905b815481529060010190602001808311610e6f57829003601f168201915b5050505050905090565b600080600160008473ffffffffffffffffffffffffffffffffffffffff1673ffffffffffffffffffffffffffffffffffffffff168152602001908152602001600020600101541415610eeb5760009050610faf565b610fac6008600201546103e8600860010154600160008773ffffffffffffffffffffffffffffffffffffffff1673ffffffffffffffffffffffffffffffffffffffff16815260200190815260200160002060000154020281610f4957fe5b0460028001546103e8600260010154600160008873ffffffffffffffffffffffffffffffffffffffff1673ffffffffffffffffffffffffffffffffffffffff16815260200190815260200160002060010154020281610fa457fe5b04600461387c565b90505b919050565b6000600e60050154905090565b6064600e6004015402610fd382610e96565b10611046576040517f08c379a000000000000000000000000000000000000000000000000000000000815260040180806020018281038252601d8152602001807f5641554c54204e4f5420554e444552434f4c4c41544552414c495a454400000081525060200191505060405180910390fd5b6000606480600e600501546064600160008773ffffffffffffffffffffffffffffffffffffffff1673ffffffffffffffffffffffffffffffffffffffff1681526020019081526020016000206001015402028161109f57fe5b04816110a757fe5b04600160008473ffffffffffffffffffffffffffffffffffffffff1673ffffffffffffffffffffffffffffffffffffffff16815260200190815260200160002060010154019050600060086001015460026001015483028161110557fe5b049050600160008473ffffffffffffffffffffffffffffffffffffffff1673ffffffffffffffffffffffffffffffffffffffff1681526020019081526020016000206000015481116111b95780600e6000016000828254019250508190555080600160008573ffffffffffffffffffffffffffffffffffffffff1673ffffffffffffffffffffffffffffffffffffffff16815260200190815260200160002060000160008282540392505081905550611257565b600160008473ffffffffffffffffffffffffffffffffffffffff1673ffffffffffffffffffffffffffffffffffffffff16815260200190815260200160002060000154600e600001600082825401925050819055506000600160008573ffffffffffffffffffffffffffffffffffffffff1673ffffffffffffffffffffffffffffffffffffffff168152602001908152602001600020600001819055505b600160008473ffffffffffffffffffffffffffffffffffffffff1673ffffffffffffffffffffffffffffffffffffffff16815260200190815260200160002060010154600e600101600082825401925050819055506000600160008573ffffffffffffffffffffffffffffffffffffffff1673ffffffffffffffffffffffffffffffffffffffff168152602001908152602001600020600101819055507f6dd29d11f8d1bcdbd79da21bf92895417dcc2f8886b3db11c8a4ce00b73de9d08383604051808373ffffffffffffffffffffffffffffffffffffffff1673ffffffffffffffffffffffffffffffffffffffff1681526020018281526020019250505060405180910390a1505050565b6000600860020154905090565b3373ffffffffffffffffffffffffffffffffffffffff16601a60009054906101000a900473ffffffffffffffffffffffffffffffffffffffff1673ffffffffffffffffffffffffffffffffffffffff1614611434576040517f08c379a000000000000000000000000000000000000000000000000000000000815260040180806020018281038252600c8152602001807f4953204e4f54204f574e4552000000000000000000000000000000000000000081525060200191505060405180910390fd5b600073ffffffffffffffffffffffffffffffffffffffff16600860000160009054906101000a900473ffffffffffffffffffffffffffffffffffffffff1673ffffffffffffffffffffffffffffffffffffffff161461149257600080fd5b83600860000160006101000a81548173ffffffffffffffffffffffffffffffffffffffff021916908373ffffffffffffffffffffffffffffffffffffffff16021790555080600860010181905550816008600201819055508260086003018190555050505050565b600080600061150d844260016000612b55565b9250925092509193909250565b3373ffffffffffffffffffffffffffffffffffffffff16601a60009054906101000a900473ffffffffffffffffffffffffffffffffffffffff1673ffffffffffffffffffffffffffffffffffffffff16146115dd576040517f08c379a000000000000000000000000000000000000000000000000000000000815260040180806020018281038252600c8152602001807f4953204e4f54204f574e4552000000000000000000000000000000000000000081525060200191505060405180910390fd5b80600e600001541015611658576040517f08c379a00000000000000000000000000000000000000000000000000000000081526004018080602001828103825260208152602001807f4e4f5420454e4f55474820434f4c4c41544552414c20494e205245534552564581525060200191505060405180910390fd5b600860000160009054906101000a900473ffffffffffffffffffffffffffffffffffffffff1673ffffffffffffffffffffffffffffffffffffffff1663a9059cbb33836040518363ffffffff1660e01b8152600401808373ffffffffffffffffffffffffffffffffffffffff1673ffffffffffffffffffffffffffffffffffffffff16815260200182815260200192505050602060405180830381600087803b15801561170457600080fd5b505af1158015611718573d6000803e3d6000fd5b505050506040513d602081101561172e57600080fd5b810190808051906020019092919050505061174857600080fd5b80600e600001600082825403925050819055507f0529afc4538720fe0b3eadc40486369ab962002d72fead1387b300c66073e7bf600860000160009054906101000a900473ffffffffffffffffffffffffffffffffffffffff1682604051808373ffffffffffffffffffffffffffffffffffffffff1673ffffffffffffffffffffffffffffffffffffffff1681526020018281526020019250505060405180910390a150565b60006117fe6002600301546114fa565b6002600101600060026005016000849190505583919050558293505050507f64e6e7bd72b853c4e62fd6ceaca05a104700c70a4cb567c75c7f2242ba7f037c600260000160009054906101000a900473ffffffffffffffffffffffffffffffffffffffff16600260010154604051808373ffffffffffffffffffffffffffffffffffffffff1673ffffffffffffffffffffffffffffffffffffffff1681526020018281526020019250505060405180910390a150565b6000600160003373ffffffffffffffffffffffffffffffffffffffff1673ffffffffffffffffffffffffffffffffffffffff168152602001908152602001600020600101541461194d576119066126f0565b600160003373ffffffffffffffffffffffffffffffffffffffff1673ffffffffffffffffffffffffffffffffffffffff168152602001908152602001600020600101819055505b60006064600e60040154600260010154600860010154600160003373ffffffffffffffffffffffffffffffffffffffff1673ffffffffffffffffffffffffffffffffffffffff1681526020019081526020016000206000015402816119ae57fe5b04816119b657fe5b0402905060028001548102905060086002015481816119d157fe5b049050600160003373ffffffffffffffffffffffffffffffffffffffff1673ffffffffffffffffffffffffffffffffffffffff1681526020019081526020016000206001015481039050808210611a90576040517f08c379a00000000000000000000000000000000000000000000000000000000081526004018080602001828103825260158152602001807f4e4f5420454e4f55474820434f4c4c41544552414c000000000000000000000081525060200191505060405180910390fd5b600e60010154821115611b0b576040517f08c379a00000000000000000000000000000000000000000000000000000000081526004018080602001828103825260138152602001807f4e4f5420454e4f5547482052455345525645530000000000000000000000000081525060200191505060405180910390fd5b612710600e60030154830281611b1d57fe5b048201600160003373ffffffffffffffffffffffffffffffffffffffff1673ffffffffffffffffffffffffffffffffffffffff16815260200190815260200160002060010160008282540192505081905550600e60070154600160003373ffffffffffffffffffffffffffffffffffffffff1673ffffffffffffffffffffffffffffffffffffffff1681526020019081526020016000206002015442031115611c085742600160003373ffffffffffffffffffffffffffffffffffffffff1673ffffffffffffffffffffffffffffffffffffffff168152602001908152602001600020600201819055505b81600e60010160008282540392505081905550600260000160009054906101000a900473ffffffffffffffffffffffffffffffffffffffff1673ffffffffffffffffffffffffffffffffffffffff1663a9059cbb33846040518363ffffffff1660e01b8152600401808373ffffffffffffffffffffffffffffffffffffffff1673ffffffffffffffffffffffffffffffffffffffff16815260200182815260200192505050602060405180830381600087803b158015611cc757600080fd5b505af1158015611cdb573d6000803e3d6000fd5b505050506040513d6020811015611cf157600080fd5b8101908080519060200190929190505050611d0b57600080fd5b7f0232862a021d33ea4a70f5d509b754f0f6986aaa0ffdd5c7db4910422afc768a3383604051808373ffffffffffffffffffffffffffffffffffffffff1673ffffffffffffffffffffffffffffffffffffffff1681526020018281526020019250505060405180910390a15050565b6000600e60020154905090565b601760009054906101000a900473ffffffffffffffffffffffffffffffffffffffff1681565b6000600860050154905090565b600860000160009054906101000a900473ffffffffffffffffffffffffffffffffffffffff1673ffffffffffffffffffffffffffffffffffffffff166323b872dd3330846040518463ffffffff1660e01b8152600401808473ffffffffffffffffffffffffffffffffffffffff1673ffffffffffffffffffffffffffffffffffffffff1681526020018373ffffffffffffffffffffffffffffffffffffffff1673ffffffffffffffffffffffffffffffffffffffff1681526020018281526020019350505050602060405180830381600087803b158015611e9a57600080fd5b505af1158015611eae573d6000803e3d6000fd5b505050506040513d6020811015611ec457600080fd5b8101908080519060200190929190505050611ede57600080fd5b80600160003373ffffffffffffffffffffffffffffffffffffffff1673ffffffffffffffffffffffffffffffffffffffff168152602001908152602001600020600001600082825401925050819055507f89d28cf06bdb2ee1b92cd046d58450042ad113e9f4cdabfc4d43e7c5557758d73382604051808373ffffffffffffffffffffffffffffffffffffffff1673ffffffffffffffffffffffffffffffffffffffff1681526020018281526020019250505060405180910390a150565b6000600e6002015414611fae57600080fd5b85600e6002018190555084600e6003018190555083600e6004018190555080600e60060160006101000a81548173ffffffffffffffffffffffffffffffffffffffff021916908373ffffffffffffffffffffffffffffffffffffffff16021790555082600e6005018190555081600e6007018190555080601660006101000a81548173ffffffffffffffffffffffffffffffffffffffff021916908373ffffffffffffffffffffffffffffffffffffffff160217905550601660009054906101000a900473ffffffffffffffffffffffffffffffffffffffff16601860006101000a81548173ffffffffffffffffffffffffffffffffffffffff021916908373ffffffffffffffffffffffffffffffffffffffff16021790555087601a60006101000a81548173ffffffffffffffffffffffffffffffffffffffff021916908373ffffffffffffffffffffffffffffffffffffffff160217905550866000908051906020019061211f9291906138a6565b505050505050505050565b6000600160003373ffffffffffffffffffffffffffffffffffffffff1673ffffffffffffffffffffffffffffffffffffffff16815260200190815260200160002060010154905090565b6000600860000160009054906101000a900473ffffffffffffffffffffffffffffffffffffffff16905090565b6121a96126f0565b600160003373ffffffffffffffffffffffffffffffffffffffff1673ffffffffffffffffffffffffffffffffffffffff16815260200190815260200160002060010181905550600160003373ffffffffffffffffffffffffffffffffffffffff1673ffffffffffffffffffffffffffffffffffffffff168152602001908152602001600020600101548111156122a7576040517f08c379a000000000000000000000000000000000000000000000000000000000815260040180806020018281038252601b8152602001807f43414e4e4f54205245504159204d4f5245205448414e204f574544000000000081525060200191505060405180910390fd5b600260000160009054906101000a900473ffffffffffffffffffffffffffffffffffffffff1673ffffffffffffffffffffffffffffffffffffffff166323b872dd3330846040518463ffffffff1660e01b8152600401808473ffffffffffffffffffffffffffffffffffffffff1673ffffffffffffffffffffffffffffffffffffffff1681526020018373ffffffffffffffffffffffffffffffffffffffff1673ffffffffffffffffffffffffffffffffffffffff1681526020018281526020019350505050602060405180830381600087803b15801561238757600080fd5b505af115801561239b573d6000803e3d6000fd5b505050506040513d60208110156123b157600080fd5b81019080805190602001909291905050506123cb57600080fd5b80600160003373ffffffffffffffffffffffffffffffffffffffff1673ffffffffffffffffffffffffffffffffffffffff1681526020019081526020016000206001016000828254039250508190555080600e600101600082825401925050819055506000600e60070154600160003373ffffffffffffffffffffffffffffffffffffffff1673ffffffffffffffffffffffffffffffffffffffff168152602001908152602001600020600201548161248057fe5b04600e60070154428161248f57fe5b04039050600e600701548102600160003373ffffffffffffffffffffffffffffffffffffffff1673ffffffffffffffffffffffffffffffffffffffff168152602001908152602001600020600201600082825401925050819055507f34d657cd4dec79d6716ce5ac15b81de5751705030cbef01b43b15eae44cbc1123383604051808373ffffffffffffffffffffffffffffffffffffffff1673ffffffffffffffffffffffffffffffffffffffff1681526020018281526020019250505060405180910390a15050565b60006125696008600301546114fa565b6008600101600060086005016000849190505583919050558293505050507f64e6e7bd72b853c4e62fd6ceaca05a104700c70a4cb567c75c7f2242ba7f037c600860000160009054906101000a900473ffffffffffffffffffffffffffffffffffffffff16600860010154604051808373ffffffffffffffffffffffffffffffffffffffff1673ffffffffffffffffffffffffffffffffffffffff1681526020018281526020019250505060405180910390a150565b6000600e60040154905090565b6000601a60009054906101000a900473ffffffffffffffffffffffffffffffffffffffff16905090565b60016020528060005260406000206000915090508060000154908060010154908060020154905083565b601660009054906101000a900473ffffffffffffffffffffffffffffffffffffffff1681565b6000600160003373ffffffffffffffffffffffffffffffffffffffff1673ffffffffffffffffffffffffffffffffffffffff16815260200190815260200160002060000154905090565b6000600160003373ffffffffffffffffffffffffffffffffffffffff1673ffffffffffffffffffffffffffffffffffffffff1681526020019081526020016000206001015490506000600e600701546301e133808161274b57fe5b0490506000600e60070154600160003373ffffffffffffffffffffffffffffffffffffffff1673ffffffffffffffffffffffffffffffffffffffff16815260200190815260200160002060020154816127a057fe5b04600e6007015442816127af57fe5b040390508082612710600e600201548602816127c757fe5b04816127cf57fe5b040283019250505090565b600073ffffffffffffffffffffffffffffffffffffffff16601760009054906101000a900473ffffffffffffffffffffffffffffffffffffffff1673ffffffffffffffffffffffffffffffffffffffff161461289e576040517f08c379a000000000000000000000000000000000000000000000000000000000815260040180806020018281038252600b8152602001807f416c72656164792053657400000000000000000000000000000000000000000081525060200191505060405180910390fd5b80601760006101000a81548173ffffffffffffffffffffffffffffffffffffffff021916908373ffffffffffffffffffffffffffffffffffffffff16021790555080601960006101000a81548173ffffffffffffffffffffffffffffffffffffffff021916908373ffffffffffffffffffffffffffffffffffffffff1602179055507f5c6c85f31e475f047482022539bfe2a3941c15e582053b7420f22e5e8cc5d7f681604051808273ffffffffffffffffffffffffffffffffffffffff1673ffffffffffffffffffffffffffffffffffffffff16815260200191505060405180910390a150565b3373ffffffffffffffffffffffffffffffffffffffff16601a60009054906101000a900473ffffffffffffffffffffffffffffffffffffffff1673ffffffffffffffffffffffffffffffffffffffff1614612a49576040517f08c379a000000000000000000000000000000000000000000000000000000000815260040180806020018281038252600c8152602001807f4953204e4f54204f574e4552000000000000000000000000000000000000000081525060200191505060405180910390fd5b600073ffffffffffffffffffffffffffffffffffffffff16600260000160009054906101000a900473ffffffffffffffffffffffffffffffffffffffff1673ffffffffffffffffffffffffffffffffffffffff1614612aa757600080fd5b83600260000160006101000a81548173ffffffffffffffffffffffffffffffffffffffff021916908373ffffffffffffffffffffffffffffffffffffffff160217905550806002600101819055508160028001819055508260026003018190555050505050565b6000600260010154905090565b6000600e60010154905090565b6000600260000160009054906101000a900473ffffffffffffffffffffffffffffffffffffffff16905090565b60008060008084601860009054906101000a900473ffffffffffffffffffffffffffffffffffffffff1673ffffffffffffffffffffffffffffffffffffffff166346eee1c48a6040518263ffffffff1660e01b81526004018082815260200191505060206040518083038186803b158015612bcf57600080fd5b505afa158015612be3573d6000803e3d6000fd5b505050506040513d6020811015612bf957600080fd5b81019080805190602001909291905050500390506000811115612e955760008190505b868203811115612e93576000601860009054906101000a900473ffffffffffffffffffffffffffffffffffffffff1673ffffffffffffffffffffffffffffffffffffffff166377fbb6638b600185036040518363ffffffff1660e01b8152600401808381526020018281526020019250505060206040518083038186803b158015612ca657600080fd5b505afa158015612cba573d6000803e3d6000fd5b505050506040513d6020811015612cd057600080fd5b81019080805190602001909291905050509050600081118015612cf35750888111155b8015612db8575060001515601860009054906101000a900473ffffffffffffffffffffffffffffffffffffffff1673ffffffffffffffffffffffffffffffffffffffff16633df0777b8c846040518363ffffffff1660e01b8152600401808381526020018281526020019250505060206040518083038186803b158015612d7957600080fd5b505afa158015612d8d573d6000803e3d6000fd5b505050506040513d6020811015612da357600080fd5b81019080805190602001909291905050501515145b15612e84576001601860009054906101000a900473ffffffffffffffffffffffffffffffffffffffff1673ffffffffffffffffffffffffffffffffffffffff166393fa49158c846040518363ffffffff1660e01b8152600401808381526020018281526020019250505060206040518083038186803b158015612e3a57600080fd5b505afa158015612e4e573d6000803e3d6000fd5b505050506040513d6020811015612e6457600080fd5b810190808051906020019092919050505082955095509550505050612ea8565b50808060019003915050612c1c565b505b6000806000819150809050935093509350505b9450945094915050565b3373ffffffffffffffffffffffffffffffffffffffff16601a60009054906101000a900473ffffffffffffffffffffffffffffffffffffffff1673ffffffffffffffffffffffffffffffffffffffff1614612f75576040517f08c379a000000000000000000000000000000000000000000000000000000000815260040180806020018281038252600c8152602001807f4953204e4f54204f574e4552000000000000000000000000000000000000000081525060200191505060405180910390fd5b80600e600101541015612fd3576040517f08c379a000000000000000000000000000000000000000000000000000000000815260040180806020018281038252602181526020018061394c6021913960400191505060405180910390fd5b600260000160009054906101000a900473ffffffffffffffffffffffffffffffffffffffff1673ffffffffffffffffffffffffffffffffffffffff1663a9059cbb33836040518363ffffffff1660e01b8152600401808373ffffffffffffffffffffffffffffffffffffffff1673ffffffffffffffffffffffffffffffffffffffff16815260200182815260200192505050602060405180830381600087803b15801561307f57600080fd5b505af1158015613093573d6000803e3d6000fd5b505050506040513d60208110156130a957600080fd5b81019080805190602001909291905050506130c357600080fd5b80600e600101600082825403925050819055507f0529afc4538720fe0b3eadc40486369ab962002d72fead1387b300c66073e7bf600260000160009054906101000a900473ffffffffffffffffffffffffffffffffffffffff1682604051808373ffffffffffffffffffffffffffffffffffffffff1673ffffffffffffffffffffffffffffffffffffffff1681526020018281526020019250505060405180910390a150565b6000600260050154905090565b600080600080601960009054906101000a900473ffffffffffffffffffffffffffffffffffffffff1673ffffffffffffffffffffffffffffffffffffffff1663c4e9e950866040518263ffffffff1660e01b81526004018082815260200191505060206040518083038186803b1580156131ef57600080fd5b505afa158015613203573d6000803e3d6000fd5b505050506040513d602081101561321957600080fd5b810190808051906020019092919050505090506000601960009054906101000a900473ffffffffffffffffffffffffffffffffffffffff1673ffffffffffffffffffffffffffffffffffffffff166373b33318876040518263ffffffff1660e01b81526004018082815260200191505060206040518083038186803b1580156132a157600080fd5b505afa1580156132b5573d6000803e3d6000fd5b505050506040513d60208110156132cb57600080fd5b8101908080519060200190929190505050905060008211156134975760008060006132fa854260016000612b55565b80935081945082955050505082156133cf5783820281601960009054906101000a900473ffffffffffffffffffffffffffffffffffffffff1673ffffffffffffffffffffffffffffffffffffffff166367cfa3f860016040518263ffffffff1660e01b81526004018082815260200191505060206040518083038186803b15801561338457600080fd5b505afa158015613398573d6000803e3d6000fd5b505050506040513d60208110156133ae57600080fd5b81019080805190602001909291905050509750975097505050505050613558565b600080601960009054906101000a900473ffffffffffffffffffffffffffffffffffffffff1673ffffffffffffffffffffffffffffffffffffffff166367cfa3f860026040518263ffffffff1660e01b81526004018082815260200191505060206040518083038186803b15801561344657600080fd5b505afa15801561345a573d6000803e3d6000fd5b505050506040513d602081101561347057600080fd5b81019080805190602001909291905050508292508191509750975097505050505050613558565b600080601960009054906101000a900473ffffffffffffffffffffffffffffffffffffffff1673ffffffffffffffffffffffffffffffffffffffff166367cfa3f860006040518263ffffffff1660e01b81526004018082815260200191505060206040518083038186803b15801561350e57600080fd5b505afa158015613522573d6000803e3d6000fd5b505050506040513d602081101561353857600080fd5b810190808051906020019092919050505082925081915094509450945050505b9193909250565b6000600e60000154905090565b60006064600e6004015460026001015460086001015485600160003373ffffffffffffffffffffffffffffffffffffffff1673ffffffffffffffffffffffffffffffffffffffff168152602001908152602001600020600001540302816135cf57fe5b04816135d757fe5b0402905060028001548102905060086002015481816135f257fe5b04905080600160003373ffffffffffffffffffffffffffffffffffffffff1673ffffffffffffffffffffffffffffffffffffffff1681526020019081526020016000206001015411156136ad576040517f08c379a000000000000000000000000000000000000000000000000000000000815260040180806020018281038252601f8152602001807f43414e4e4f5420554e444552434f4c4c41544552414c495a45205641554c540081525060200191505060405180910390fd5b600860000160009054906101000a900473ffffffffffffffffffffffffffffffffffffffff1673ffffffffffffffffffffffffffffffffffffffff1663a9059cbb33846040518363ffffffff1660e01b8152600401808373ffffffffffffffffffffffffffffffffffffffff1673ffffffffffffffffffffffffffffffffffffffff16815260200182815260200192505050602060405180830381600087803b15801561375957600080fd5b505af115801561376d573d6000803e3d6000fd5b505050506040513d602081101561378357600080fd5b810190808051906020019092919050505061379d57600080fd5b81600160003373ffffffffffffffffffffffffffffffffffffffff1673ffffffffffffffffffffffffffffffffffffffff1681526020019081526020016000206000016000828254039250508190555081600e600001600082825403925050819055507f0ac60fbf53b67f5a6a0c8031dd9d1610a06f01669b1a8b9af98f3a6a477e8d7c3383604051808373ffffffffffffffffffffffffffffffffffffffff1673ffffffffffffffffffffffffffffffffffffffff1681526020018281526020019250505060405180910390a15050565b6000600e60030154905090565b6000600a60058460018501600a0a87028161389357fe5b04018161389c57fe5b0490509392505050565b828054600181600116156101000203166002900490600052602060002090601f016020900481019282601f106138e757805160ff1916838001178555613915565b82800160010185558215613915579182015b828111156139145782518255916020019190600101906138f9565b5b5090506139229190613926565b5090565b61394891905b8082111561394457600081600090555060010161392c565b5090565b9056fe4e4f5420454e4f554748204445425420544f4b454e5320494e2052455345525645a265627a7a723158206634fc72dc3e67e0e8c6a4b8eab13f93418baa91bad599c69d9264731ea51ab764736f6c63430005100032",
  "source": "pragma solidity ^0.5.0;\n\nimport \"./BankStorage.sol\";\nimport \"@openzeppelin/contracts/token/ERC20/IERC20.sol\";\n\n/**\n* @title Bank\n* This contract allows the owner to deposit reserves(debt token), earn interest and\n* origination fees from users that borrow against their collateral.\n* The oracle for Bank is Tellor.\n*/\ncontract Bank is BankStorage, UsingTellor {\n\n  address private _owner;\n\n  /*Events*/\n  event ReserveDeposit(uint256 amount);\n  event ReserveWithdraw(address token, uint256 amount);\n  event VaultDeposit(address owner, uint256 amount);\n  event VaultBorrow(address borrower, uint256 amount);\n  event VaultRepay(address borrower, uint256 amount);\n  event VaultWithdraw(address borrower, uint256 amount);\n  event PriceUpdate(address token, uint256 price);\n  event Liquidation(address borrower, uint256 debtAmount);\n\n  /*Constructor*/\n  constructor(address payable oracleContract) public UsingTellor(oracleContract) {\n    reserve.oracleContract = oracleContract;\n  }\n\n  /*Modifiers*/\n  modifier onlyOwner() {\n    require(_owner == msg.sender, \"IS NOT OWNER\");\n    _;\n  }\n  /*Functions*/\n  /**\n  * @dev Returns the owner of the bank\n  */\n  function owner() public view returns (address) {\n    return _owner;\n  }\n\n  /**\n  * @dev This function sets the fundamental parameters for the bank\n  *      and assigns the first admin\n  */\n  function init(\n    address creator,\n    string memory bankName,\n    uint256 interestRate,\n    uint256 originationFee,\n    uint256 collateralizationRatio,\n    uint256 liquidationPenalty,\n    uint256 period,\n    address payable oracleContract) public  {\n    require(reserve.interestRate == 0); // Ensure not init'd already\n    reserve.interestRate = interestRate;\n    reserve.originationFee = originationFee;\n    reserve.collateralizationRatio = collateralizationRatio;\n    reserve.oracleContract = oracleContract;\n    reserve.liquidationPenalty = liquidationPenalty;\n    reserve.period = period;\n    tellorStorageAddress = oracleContract;\n    _tellorm = TellorMaster(tellorStorageAddress);\n    _owner = creator; // Make the creator the first admin\n    name = bankName;\n  }\n\n  /**\n  * @dev This function sets the collateral token properties, only callable one time\n  */\n  function setCollateral(\n    address collateralToken,\n    uint256 collateralTokenTellorRequestId,\n    uint256 collateralTokenPriceGranularity,\n    uint256 collateralTokenPrice) public onlyOwner {\n\n    require(collateral.tokenAddress == address(0)); // Ensure not init'd already\n    collateral.tokenAddress = collateralToken;\n    collateral.price = collateralTokenPrice;\n    collateral.priceGranularity = collateralTokenPriceGranularity;\n    collateral.tellorRequestId = collateralTokenTellorRequestId;\n  }\n\n  /**\n  * @dev This function sets the debt token properties, only callable one time\n  */\n  function setDebt(\n    address debtToken,\n    uint256 debtTokenTellorRequestId,\n    uint256 debtTokenPriceGranularity,\n    uint256 debtTokenPrice) public onlyOwner {\n\n    require(debt.tokenAddress == address(0)); // Ensure not init'd already\n    debt.tokenAddress = debtToken;\n    debt.price = debtTokenPrice;\n    debt.priceGranularity = debtTokenPriceGranularity;\n    debt.tellorRequestId = debtTokenTellorRequestId;\n  }\n\n  /**\n  * @dev This function allows the Bank owner to deposit the reserve (debt tokens)\n  * @param amount is the amount to deposit\n  */\n  function reserveDeposit(uint256 amount) external onlyOwner {\n    require(IERC20(debt.tokenAddress).transferFrom(msg.sender, address(this), amount));\n    reserve.debtBalance += amount;\n    emit ReserveDeposit(amount);\n  }\n\n  /**\n  * @dev This function allows the Bank owner to withdraw the reserve (debt tokens)\n  * @param amount is the amount to withdraw\n  */\n  function reserveWithdraw(uint256 amount) external onlyOwner {\n    require(reserve.debtBalance >= amount, \"NOT ENOUGH DEBT TOKENS IN RESERVE\");\n    require(IERC20(debt.tokenAddress).transfer(msg.sender, amount));\n    reserve.debtBalance -= amount;\n    emit ReserveWithdraw(debt.tokenAddress, amount);\n  }\n\n  /**\n  * @dev This function allows the user to withdraw their collateral\n  * @param amount is the amount to withdraw\n  */\n  function reserveWithdrawCollateral(uint256 amount) external onlyOwner {\n    require(reserve.collateralBalance >= amount, \"NOT ENOUGH COLLATERAL IN RESERVE\");\n    require(IERC20(collateral.tokenAddress).transfer(msg.sender, amount));\n    reserve.collateralBalance -= amount;\n    emit ReserveWithdraw(collateral.tokenAddress, amount);\n  }\n\n  /**\n  * @dev Use this function to get and update the price for the collateral token\n  * using the Tellor Oracle.\n  */\n  function updateCollateralPrice() external {\n    bool ifRetrieve;\n    (ifRetrieve, collateral.price, collateral.lastUpdatedAt) = getCurrentValue(collateral.tellorRequestId); //,now - 1 hours);\n    emit PriceUpdate(collateral.tokenAddress, collateral.price);\n  }\n\n  /**\n  * @dev Use this function to get and update the price for the debt token\n  * using the Tellor Oracle.\n  */\n  function updateDebtPrice() external {\n    bool ifRetrieve;\n    (ifRetrieve, debt.price, debt.lastUpdatedAt) = getCurrentValue(debt.tellorRequestId); //,now - 1 hours);\n    emit PriceUpdate(debt.tokenAddress, debt.price);\n  }\n\n  /**\n  * @dev Anyone can use this function to liquidate a vault's debt,\n  * the bank admins gets the collateral liquidated\n  * @param vaultOwner is the user the bank admins wants to liquidate\n  */\n  function liquidate(address vaultOwner) external {\n    // Require undercollateralization\n    require(getVaultCollateralizationRatio(vaultOwner) < reserve.collateralizationRatio * 100, \"VAULT NOT UNDERCOLLATERALIZED\");\n    uint256 debtOwned = vaults[vaultOwner].debtAmount + (vaults[vaultOwner].debtAmount * 100 * reserve.liquidationPenalty / 100 / 100);\n    uint256 collateralToLiquidate = debtOwned * debt.price / collateral.price;\n\n    if(collateralToLiquidate <= vaults[vaultOwner].collateralAmount) {\n      reserve.collateralBalance +=  collateralToLiquidate;\n      vaults[vaultOwner].collateralAmount -= collateralToLiquidate;\n    } else {\n      reserve.collateralBalance +=  vaults[vaultOwner].collateralAmount;\n      vaults[vaultOwner].collateralAmount = 0;\n    }\n    reserve.debtBalance += vaults[vaultOwner].debtAmount;\n    vaults[vaultOwner].debtAmount = 0;\n    emit Liquidation(vaultOwner, debtOwned);\n  }\n\n\n  /**\n  * @dev Use this function to allow users to deposit collateral to the vault\n  * @param amount is the collateral amount\n  */\n  function vaultDeposit(uint256 amount) external {\n    require(IERC20(collateral.tokenAddress).transferFrom(msg.sender, address(this), amount));\n    vaults[msg.sender].collateralAmount += amount;\n    emit VaultDeposit(msg.sender, amount);\n  }\n\n  /**\n  * @dev Use this function to allow users to borrow against their collateral\n  * @param amount to borrow\n  */\n  function vaultBorrow(uint256 amount) external {\n    if (vaults[msg.sender].debtAmount != 0) {\n      vaults[msg.sender].debtAmount = getVaultRepayAmount();\n    }\n    uint256 maxBorrow = vaults[msg.sender].collateralAmount * collateral.price / debt.price / reserve.collateralizationRatio * 100;\n    maxBorrow *= debt.priceGranularity;\n    maxBorrow /= collateral.priceGranularity;\n    maxBorrow -= vaults[msg.sender].debtAmount;\n    require(amount < maxBorrow, \"NOT ENOUGH COLLATERAL\");\n    require(amount <= reserve.debtBalance, \"NOT ENOUGH RESERVES\");\n    vaults[msg.sender].debtAmount += amount + ((amount * reserve.originationFee) / 10000);\n    if (block.timestamp - vaults[msg.sender].createdAt > reserve.period) {\n      // Only adjust if more than 1 interest rate period has past\n      vaults[msg.sender].createdAt = block.timestamp;\n    }\n    reserve.debtBalance -= amount;\n    require(IERC20(debt.tokenAddress).transfer(msg.sender, amount));\n    emit VaultBorrow(msg.sender, amount);\n  }\n\n  /**\n  * @dev This function allows users to pay the interest and origination fee to the\n  *  vault before being able to withdraw\n  * @param amount owed\n  */\n  function vaultRepay(uint256 amount) external {\n    vaults[msg.sender].debtAmount = getVaultRepayAmount();\n    require(amount <= vaults[msg.sender].debtAmount, \"CANNOT REPAY MORE THAN OWED\");\n    require(IERC20(debt.tokenAddress).transferFrom(msg.sender, address(this), amount));\n    vaults[msg.sender].debtAmount -= amount;\n    reserve.debtBalance += amount;\n    uint256 periodsElapsed = (block.timestamp / reserve.period) - (vaults[msg.sender].createdAt / reserve.period);\n    vaults[msg.sender].createdAt += periodsElapsed * reserve.period;\n    emit VaultRepay(msg.sender, amount);\n  }\n\n  /**\n  * @dev Allows users to withdraw their collateral from the vault\n  */\n  function vaultWithdraw(uint256 amount) external {\n    uint256 maxBorrowAfterWithdraw = (vaults[msg.sender].collateralAmount - amount) * collateral.price / debt.price / reserve.collateralizationRatio * 100;\n    maxBorrowAfterWithdraw *= debt.priceGranularity;\n    maxBorrowAfterWithdraw /= collateral.priceGranularity;\n    require(vaults[msg.sender].debtAmount <= maxBorrowAfterWithdraw, \"CANNOT UNDERCOLLATERALIZE VAULT\");\n    require(IERC20(collateral.tokenAddress).transfer(msg.sender, amount));\n    vaults[msg.sender].collateralAmount -= amount;\n    reserve.collateralBalance -= amount;\n    emit VaultWithdraw(msg.sender, amount);\n  }\n\n}\n",
  "sourcePath": "/Users/mikeghen/Documents/Projects/bank/contracts/Bank.sol",
  "compiler": {
    "name": "solc",
    "version": "0.5.16+commit.9c3226ce.Emscripten.clang"
  },
  "schemaVersion": "3.2.0",
  "updatedAt": "2020-08-08T15:07:50.700Z",
  "networkType": "ethereum",
  "devdoc": {
    "methods": {
      "getCollateralTokenAddress()": {
        "details": "Getter function for debt token address",
        "return": "debt token price"
      },
      "getCollateralTokenLastUpdatedAt()": {
        "details": "Getter function for the collateral token last update time",
        "return": "collateral token last update time"
      },
      "getCollateralTokenPrice()": {
        "details": "Getter function for the collateral token price",
        "return": "collateral token price"
      },
      "getCollateralTokenPriceGranularity()": {
        "details": "Getter function for the collateral token price granularity",
        "return": "collateral token price granularity"
      },
      "getCollateralizationRatio()": {
        "details": "Getter function for the current collateralization ratio",
        "return": "collateralization ratio"
      },
      "getCurrentValue(uint256)": {
        "details": "Allows the user to get the latest value for the requestId specified",
        "params": {
          "_requestId": "is the requestId to look up the value for"
        },
        "return": "bool true if it is able to retreive a value, the value, and the value's timestamp"
      },
      "getDataBefore(uint256,uint256,uint256,uint256)": {
        "details": "Allows the user to get the first value for the requestId before the specified timestamp",
        "params": {
          "_limit": "a limit on the number of values to look at",
          "_offset": "the number of values to go back before looking for data values",
          "_requestId": "is the requestId to look up the value for",
          "_timestamp": "before which to search for first verified value"
        },
        "return": "bool true if it is able to retreive a value, the value, and the value's timestamp"
      },
      "getDebtTokenAddress()": {
        "details": "Getter function for debt token address",
        "return": "debt token price"
      },
      "getDebtTokenLastUpdatedAt()": {
        "details": "Getter function for the debt token last update time",
        "return": "debt token last update time"
      },
      "getDebtTokenPrice()": {
        "details": "Getter function for the debt token(reserve) price",
        "return": "debt token price"
      },
      "getDebtTokenPriceGranularity()": {
        "details": "Getter function for the debt token price granularity",
        "return": "debt token price granularity"
      },
      "getInterestRate()": {
        "details": "Getter function for the current interest rate",
        "return": "interest rate"
      },
      "getLiquidationPenalty()": {
        "details": "Getter function for the liquidation penalty",
        "return": "liquidation penalty"
      },
      "getName()": {
        "details": "Getter function for the bank name",
        "return": "bank name"
      },
      "getOriginationFee()": {
        "details": "Getter function for the origination fee",
        "return": "origination fee"
      },
      "getReserveBalance()": {
        "details": "Getter function for the debt token(reserve) balance",
        "return": "debt reserve balance"
      },
      "getReserveCollateralBalance()": {
        "details": "Getter function for the debt reserve collateral balance",
        "return": "collateral reserve balance"
      },
      "getVaultCollateralAmount()": {
        "details": "Getter function for the user's vault collateral amount",
        "return": "collateral amount"
      },
      "getVaultCollateralizationRatio(address)": {
        "details": "Getter function for the collateralization ratio",
        "return": "collateralization ratio"
      },
      "getVaultDebtAmount()": {
        "details": "Getter function for the user's vault debt amount",
        "return": "debt amount"
      },
      "getVaultRepayAmount()": {
        "details": "Getter function for the user's vault debt amount  uses a simple interest formula (i.e. not compound  interest)",
        "return": "debt amount"
      },
      "init(address,string,uint256,uint256,uint256,uint256,uint256,address)": {
        "details": "This function sets the fundamental parameters for the bank     and assigns the first admin"
      },
      "liquidate(address)": {
        "details": "Anyone can use this function to liquidate a vault's debt, the bank admins gets the collateral liquidated",
        "params": {
          "vaultOwner": "is the user the bank admins wants to liquidate"
        }
      },
      "owner()": {
        "details": "Returns the owner of the bank"
      },
      "reserveDeposit(uint256)": {
        "details": "This function allows the Bank owner to deposit the reserve (debt tokens)",
        "params": {
          "amount": "is the amount to deposit"
        }
      },
      "reserveWithdraw(uint256)": {
        "details": "This function allows the Bank owner to withdraw the reserve (debt tokens)",
        "params": {
          "amount": "is the amount to withdraw"
        }
      },
      "reserveWithdrawCollateral(uint256)": {
        "details": "This function allows the user to withdraw their collateral",
        "params": {
          "amount": "is the amount to withdraw"
        }
      },
      "setCollateral(address,uint256,uint256,uint256)": {
        "details": "This function sets the collateral token properties, only callable one time"
      },
      "setDebt(address,uint256,uint256,uint256)": {
        "details": "This function sets the debt token properties, only callable one time"
      },
      "updateCollateralPrice()": {
        "details": "Use this function to get and update the price for the collateral token using the Tellor Oracle."
      },
      "updateDebtPrice()": {
        "details": "Use this function to get and update the price for the debt token using the Tellor Oracle."
      },
      "valueFor(bytes32)": {
        "details": "Allows the user to get the latest value for the requestId specified using the ADO specification for the standard inteface for price oracles",
        "params": {
          "_bytesId": "is the ADO standarized bytes32 price/key value pair identifier"
        },
        "return": "the timestamp, outcome or value/ and the status code (for retreived, null, etc...)"
      },
      "vaultBorrow(uint256)": {
        "details": "Use this function to allow users to borrow against their collateral",
        "params": {
          "amount": "to borrow"
        }
      },
      "vaultDeposit(uint256)": {
        "details": "Use this function to allow users to deposit collateral to the vault",
        "params": {
          "amount": "is the collateral amount"
        }
      },
      "vaultRepay(uint256)": {
        "details": "This function allows users to pay the interest and origination fee to the vault before being able to withdraw",
        "params": {
          "amount": "owed"
        }
      },
      "vaultWithdraw(uint256)": {
        "details": "Allows users to withdraw their collateral from the vault"
      }
    },
    "title": "Bank This contract allows the owner to deposit reserves(debt token), earn interest and origination fees from users that borrow against their collateral. The oracle for Bank is Tellor."
  },
  "userdoc": {
    "methods": {}
  }
}